:100628004F4B0D0A004552524F520D0A004D4F4490
:1006380020320053544F5032004D4F442031005364
:0A064800544F50310053544F50003E
:1005E9000333FF06280322FF062D012D00022B00ED
:1005F90000013A00012800012E01013B00012600FB
:10060900012700012F000132000121010130010100
:0E0619002901013600012501013101012A01EC
:070706007590E075B0F922C7
:1006BA00E58954F04401F589E4FF758CEEE4F58A86
:0B06CA00D28C308DFDC28D0FBFC8EF39
:0106D5002202
:0606F200D292C293C2B2D5
:0E06F800758CFF758AD2D28C308DFDC28D229A
:0E06D600C2B3D2B2C290C291C292D293C2B24B
:0E06E400758CF8758ACDD28C308DFDC28D22BA
:1004AD001207061206BAC2B3D2B2C290C291120698
:1004BD00F2C2B3D2B2C290C291D292C293C2B20072
:1004CD00C2B3D2B2D290C291C2921206F4C2B3D2CA
:1004DD00B2C290C291C292C293C2B200C2B3D2B2A2
:1004ED00D290D291D292D293C2B21206F8C2B3D2A6
:1004FD00B2C290C291C292C293C2B2001206D6127B
:10050D0006E4C2B3D2B2C290C291C292C293C2B239
:10051D0000C2B3D2B2C290D2911206F21206E4D248
:02052D00942216
:10000300C2B3D2B2C290C291C292C293C2B2001220
:0500130006D60206E420
:050652009290AF041DB1
:100657007401A805088002C333D8FC5FFFAE05A864
:0E06670006088002C313D8FC24FF9200A200F4
:010675002262
:1005A400AC07D2B3D2B27D0712065712065292910B
:1005B400AF041D1206579292AF041D120657929370
:1005C400C2B200D2B2AF041D120657120652929163
:1005D400AF041D1206579292AF041D120657929350
:0505E400C2B20206F89E
:060676008B4B8A4C894DFC
:10067C00E4F54EAB4BAA4CA94D854E827583001206
:0C068C000244FF60071205A4054E80E741
:01069800223F
:10069900C2B3D2B2D290D291C292C293C2B200D2A4
:1006A900B2C290C291C292C293C2B21206E40206C9
:0106B900E45C
:03001B0002052FAC
:10052F00C0E0C0D075D000C006C007758B48758D70
:10053F0048052CE52C7002052BFFAE2BBE1317BF01
:10054F008814E528600A053AE53AB43C03753A0089
:10055F00752B00752C00A280E433F521B5300C0506
:10056F0032E532B4050885212980007532008521D6
:10057F0030A281E433F525B5310C0536E536B405E7
:10058F000885252A8000753600852531D007D006CD
:05059F00D0D0D0E032D5
:10002600E53C6428702EE53D64537028E53EB454E3
:1000360023E53FB4411EE540B45219E541B45414DA
:10004600E542B4290F75280185333785343885355F
:1000560039020113E53C64287033E53D6453702D85
:10006600E53E64547027E53F644F7021E540B45087
:100076001CE541B42917E4F52885333785343885DE
:100086003539752E01F53AF52FF53B802EE53C64A2
:10009600287046E53D644D7040E53E643A703AE5A9
:1000A6004064297034E53FB43117853337853438D9
:1000B600853539752E01E4F53AF52FF527F52680B5
:1000C6005AE53FB43211853337853438853539756D
:1000D6002E02E4F53B80448039E53C64287033E524
:1000E6003D6442702DE53EB43A28E540B42923E547
:1000F6002EB4021EE4F53AF52FE53F24D0F53FF580
:1001060027853337853438853539753B01E4F5263F
:100116008009852237852338852439AB37AA38A943
:0C0126003912022BF599E4F53CF52D226E
:03002300020423B1
:10042300C0E0C0F0C083C082C0D075D000C000C09F
:1004330001C002C003C004C005C006C00730983322
:10044300C298859946E546B42803752D00743C256A
:100453002DF8A646AF2DEF3395E0FEEF2401FFE420
:100463003EFE7C007D0A1202718D2DE546B4290300
:030473001200264E
:10047600309919C29974012539F539E43538F538BA
:10048600AB37FAA93912022B6002F599D007D006CC
:10049600D005D004D003D002D001D000D0D0D08275
:0704A600D083D0F0D0E0325A
:0702FC00120699AF3A7E00E3
:04030300AB07AA0694
:10030700900000E4F54DF54EF54FF550EB4A603699
:100317007C007D0AAF03AE021202718C4B8D4C7CC0
:10032700007D0AAF03AE02120271AA06AB07E54CC5
:100337002430FFAE8274592EF8A607054EE54E709D
:1003470002054DA380C67459254EF8E4F6854D4F36
:10035700854E50E54E24FFFFE54D34FFFEE4F5835F
:10036700F582C3E5829550E583954F501674592F52
:10037700F8E6FDAC8274512CF8A605A3EF1F70E2D6
:0F0387001E80DF74512550F8E4F6FB7A0079519F
:010396002244
:10013200754701754801754901754A01758B487506
:100142008D48758920D28ED2AB538780759AFD7502
:100152009850439B1CD2ACD2AFE4F528752E011205
:1001620004ADE528700302020DC2A0852947E547C8
:10017200D395484002052FE52E6402703FE53B64AB
:10018200017039E526700C1200037BFF7A0679357F
:10019200120676E52F652770231200037BFF7A068D
:1001A200793B1206761202FC120676E4F52FF53A36
:1001B200752601F528752E01F53BF527852A49E5B7
:1001C2002E6401705BE526700C1200037BFF7A0639
:1001D2007941120676E549D3954A40441200037BE1
:1001E200FF7A067947120676AF2F7E0012030312BA
:1001F20006761202FC120676E4F52FF53A75260110
:10020200F528752E01F53BF5278015D2A0E4F53AC5
:10021200E526700C1200037BFF7A06794D120676F2
:0902220085474885494A02016440
:0300000002039761
:0C039700787FE4F6D8FD7581600203DE7B
:10022B00BB010689828A83E0225002E722BBFE02D1
:09023B00E32289828A83E4932204
:10024400BB010CE58229F582E5833AF583E022506F
:1002540006E92582F8E622BBFE06E92582F8E222B9
:0D026400E58229F582E5833AF583E49322D3
:10027100C2D5EC30E709B2D5E4C39DFDE49CFCEEA8
:1002810030E715B2D5E4C39FFFE49EFE1202A7C377
:10029100E49DFDE49CFC80031202A730D507C3E472
:0602A1009FFFE49EFE2217
:1003A300020132E493A3F8E493A34003F68001F23D
:1003B30008DFF48029E493A3F85407240CC8C3335B
:1003C300C4540F4420C8834004F456800146F6DF2A
:1003D300E4800B01020408102040809005E9E47ECC
:1003E300019360BCA3FF543F30E509541FFEE4931F
:1003F300A360010ECF54C025E060A840B8E493A3E6
:10040300FAE493A3F8E493A3C8C582C8CAC583CA10
:10041300F0A3C8C582C8CAC583CADFE9DEE780BEC8
:0106270000D2
:1002A700BC000BBE0029EF8DF084FFADF022E4CC3B
:1002B700F875F008EF2FFFEE33FEEC33FCEE9DEC04
:1002C700984005FCEE9DFE0FD5F0E9E4CEFD22ED4A
:1002D700F8F5F0EE8420D21CFEADF075F008EF2F94
:1002E700FFED33FD4007985006D5F0F222C398FD85
:0502F7000FD5F0EA2222
:00000001FF
